:020000040800F2
:100000000080012061020008B1020008B10200086E
:10001000B1020008B1020008B102000800000000AF
:10002000000000000000000000000000B102000815
:10003000B102000800000000B1020008B10200088F
:1000400000000000B1020008B1020008B10200087F
:10005000B1020008B1020008B1020008B1020008B4
:10006000B1020008B1020008B1020008B1020008A4
:10007000B1020008B1020008B1020008B102000894
:10008000B1020008B1020008B1020008000000003F
:10009000000000000000000000000000B1020008A5
:1000A000B1020008B1020008B1020008B102000864
:1000B000B1020008B1020008B1020008B102000854
:1000C000B1020008B1020008B1020008B102000844
:1000D000B1020008B1020008B102000800000000EF
:1000E000B1020008B1020008B102000800000000DF
:1000F000000000000000000000000000B102000845
:1001000000000000B1020008B1020008B1020008BE
:1001100000000000000000000000000000000000DF
:10012000B1020008B1020008B1020008B1020008E3
:10013000B102000800000000000000000000000004
:10014000000000000000000000000000B1020008F4
:10015000B1020008B1020008B1020008B1020008B3
:10016000B1020008B1020008000000000000000019
:10017000000000000000000000000000000000007F
:10018000000000000000000000000000000000006F
:04019000B1020008B0
:1001940010B5054C237833B9044B13B10448AFF3BD
:1001A40000800123237010BD000000200000000027
:1001B400FC02000808B5034B1BB103490348AFF325
:1001C400008008BD0000000004000020FC020008BC
:1001D40080B483B000AF1E4B1B6B1D4A43F0050374
:1001E40013631C4B1B681B4A43F480631360194B55
:1001F4001B68184A23F400631360174B1B68164AE4
:1002040023F080631360144B1B68134A23F00063CC
:100214001360114B1B6903F40053002B10D00D4BDA
:100224005B690C4A83F02003536100237B6002E086
:100234007B6801337B607B68B3F5FA6FF8DBE8E732
:10024400044B5B69034A23F020035361E1E700BFD9
:100254000038024000000240000802400D48854674
:10026400AFF300800C480D490D4A002302E0D45836
:10027400C4500433C4188C42F9D30A4A0A4C0023EC
:1002840001E013600432A242FBD300F011F8FFF73F
:100294009FFFFEE7008001200000002000000020F6
:1002A4001C030008000000201C000020FEE70000E2
:1002B40070B50D4D0D4C641BA4100026A64209D147
:1002C4000B4D0C4C00F018F8641BA4100026A64239
:1002D40005D170BD55F8043B98470136EEE755F853
:1002E400043B98470136F2E714030008140300089E
:1002F4001403000818030008F8B500BFF8BC08BCD4
:100304009E467047F8B500BFF8BC08BC9E467047CF
:04031400B901000823
:040318009501000843
:04000005080002618C
:00000001FF
