:020000040800F2
:1000000000800120390400088904000889040008E0
:100010008904000889040008890400080000000021
:10002000000000000000000000000000890400083B
:100030008904000800000000890400088904000801
:1000400000000000890400088904000889040008F1
:100050008904000889040008650200088904000872
:10006000890400088904000889040008890400083C
:10007000890400088904000889040008890400082C
:1000800089040008890400088904000800000000B1
:1000900000000000000000000000000089040008CB
:1000A00089040008890400088904000889040008FC
:1000B00089040008890400088904000889040008EC
:1000C00089040008890400088904000889040008DC
:1000D0008904000889040008890400080000000061
:1000E0008904000889040008890400080000000051
:1000F000000000000000000000000000890400086B
:100100000000000089040008890400088904000830
:1001100000000000000000000000000000000000DF
:10012000890400088904000889040008890400087B
:10013000890400080000000000000000000000002A
:10014000000000000000000000000000890400081A
:10015000890400088904000889040008890400084B
:100160008904000889040008000000000000000065
:10017000000000000000000000000000000000007F
:10018000000000000000000000000000000000006F
:0401900089040008D6
:1001940010B5054C237833B9044B13B10448AFF3BD
:1001A40000800123237010BD000000200000000027
:1001B400D404000808B5034B1BB103490348AFF34B
:1001C400008008BD0000000004000020D4040008E2
:1001D40080B483B000AF0346FB7197F90730002B5E
:1001E4000BDBFB7903F01F02074997F907305B0922
:1001F400012000FA02F241F8232000BF0C37BD466B
:100204005DF8047B704700BF00E100E080B483B078
:1002140000AF03463960FB7197F90730002B0ADB06
:100224003B68DAB20C4997F907301201D2B20B4499
:1002340083F800230AE03B68DAB20849FB7903F04B
:100244000F03043B1201D2B20B441A7600BF0C37E1
:10025400BD465DF8047B704700E100E000ED00E07E
:1002640080B483B000AF214B5B6903F00103002B22
:1002740035D01E4B5B691D4A43F0010353611C4B8F
:100284005B691B4A83F0200353614FF080431B6A70
:100294004FF0804243F4807313624FF080431B6835
:1002A4004FF0804243F00103136000237B6002E0BF
:1002B4007B6801337B607B680E4A9342F8DD4FF024
:1002C40080431B6A4FF0804223F4807313624FF023
:1002D40080431B684FF0804223F00103136000BF8A
:1002E4000C37BD465DF8047B704700BF003C0140FD
:1002F400000402403F420F0080B500AF224B1B6B4D
:10030400214A43F003031363204B1B681F4A23F065
:10031400030313601E4B1B681D4A43F48063136080
:100324001B4B1B681A4A23F400631360164B5B6C67
:10033400154A43F480435364164B9B68154A23F0D3
:100344000F039360144B1B68134A43F001031360BB
:10035400114B5B68104A23F0010353600E4B9B68FA
:100364000D4A43F0010393600B4BDB680A4A23F008
:100374000103D3600F210620FFF748FF0620FFF793
:1003840027FF00BF80BD00BF0038024000000240CC
:100394000004024000380140003C014080B400AF3A
:1003A4001E4B1B6C1D4A43F0010313641C4B1B685A
:1003B4001B4A43F400131360194B1B68184A43F497
:1003C40080131360164B5B6A154A43F480735362BF
:1003D4004FF0804353229A624FF080431322DA6233
:1003E4004FF08043DB694FF0804243F06003D361F8
:1003F4004FF080431B6A4FF0804223F480731362F2
:100404004FF080431B684FF0804243F001031360B8
:1004140000BFBD465DF8047B704700BF0038024052
:100424000004024080B500AFFFF766FFFFF7B6FF98
:10043400FEE700000D488546AFF300800C480D49E7
:100444000D4A002302E0D458C4500433C4188C422B
:10045400F9D30A4A0A4C002301E013600432A24291
:10046400FBD300F011F8FFF7DDFFFEE70080012069
:100474000000002000000020F40400080000002018
:100484001C000020FEE7000070B50D4D0D4C641BF0
:10049400A4100026A64209D10B4D0C4C00F018F80C
:1004A400641BA4100026A64205D170BD55F8043B78
:1004B40098470136EEE755F8043B98470136F2E7D2
:1004C400EC040008EC040008EC040008F004000844
:1004D400F8B500BFF8BC08BC9E467047F8B500BF2D
:0804E400F8BC08BC9E467047FD
:0404EC00B90100084A
:0404F000950100086A
:0400000508000439B2
:00000001FF
